S02B00006373313230625F46696E616C50726F6A6563745F57696E746572323031395F4672616E636973636F4E
S113000045C0000060C000005EC000005CC000008D
S11300105AC0000058C0000056C0000054C0000080
S113002052C0000050C000004EC000004CC0000090
S11300304AC00000BAC0000046C0000044C000002E
S113004042C0000040C000003EC000003CC00000B0
S11300503AC0000038C0000036C0000034C00000C0
S113006032C0000030C000002EC000002CC00000D0
S11300702AC0000028C0000026C0000024C00000E0
S113008022C0000020C000001EC0000011241FBEBA
S1130090CFEFD0E4DEBFCDBF11E0A0E0B1E0E2E7F6
S11300A0F7E000E00BBF02C007900D92AC30B1073F
S11300B0D9F721E0ACE0B1E001C01D92AB34B20746
S11300C0E1F7A8D254C39CCF8130910531F083303D
S11300D0910541F0892B99F409C0039907C0039B4A
S11300E009C004C0039B06C0039B04C01BB881E085
S11300F090E0089582E08BB983E090E0089580E079
S113010090E008958130910531F08230910541F0FD
S1130110892B99F409C0029907C0029B09C004C045
S1130120029B06C0029B04C01BB881E090E00895C6
S113013081E08BB982E090E0089580E090E008953A
S11301406093000170930101809302019093030175
S113015060933E0170933F0180934001909341016D
S113016008958BE0809381008DE790E0909389005F
S11301708093880082E080936F0010928500109233
S113018084008091000190910101A0910201B0913D
S1130190030180933E0190933F01A0934001B093EB
S11301A041018FB780688FBF08951F920F920FB6D9
S11301B00F9211248F939F93AF93BF9380913E012D
S11301C090913F01A0914001B09141010197A10993
S11301D0B10980933E0190933F01A0934001B093F5
S11301E04101892B8A2B8B2B99F481E08093420166
S11301F08091000190910101A0910201B09103014D
S113020080933E0190933F01A0934001B09341013C
S1130210BF91AF919F918F910F900FBE0F901F9040
S1130220189580E480937C0087E880937A00089591
S1130230CF93C82FF6DFECE7F0E090818C2F877026
S1130240892B8083EAE7F0E0808180648083808169
S113025084FFFDCFEAE7F0E08081806180838091B4
S1130260780090917900CF9108959C013A952D3FA3
S113027041E03407A0F56836E2E07E0758F115C086
S1130280AB015A954D3F514098F02D3F314098F4C1
S11302906F3F710598F08539914098F47A956D3FD8
S11302A0714090F484E090E0089581E090E0089536
S11302B082E090E0089580E090E0089583E090E08B
S11302C0089580E090E0089580E090E0089582E051
S11302D090E00895883642E0940730F4D9CF883608
S11302E0E2E09E07C0F2CCCF9B013A952D3F31400E
S11302F070F3CECFEF92FF920F931F93CF93DF93C0
S1130300EC018230910509F47EC034F4009709F4BD
S1130310CEC0019749F0E2C08330910509F4C7C00B
S1130320049709F4AEC0DAC080E082DF90934601FE
S11303308093450181E07CDF8C0190934A01809396
S11303404901039B0EC0BC01809145019091460177
S11303508CDF892B31F480913D01853008F414C180
S1130360FBC0039941C0B8018091450190914601B9
S11303707CDF892B09F0FEC080913D01853008F0B7
S113038001C18F5F80933D0185B1811105C081E07A
S113039085B9C2E0D0E0F8C085B1813029F483E0AA
S11303A085B9C2E0D0E0F0C085B1833029F487E09C
S11303B085B9C2E0D0E0E8C085B1873029F48FE088
S11303C085B9C2E0D0E0E0C085B18F3029F48FE177
S11303D085B9C2E0D0E0D8C085B18F3109F0C1C081
S11303E085B9C2E0D0E0D0C080913D01853008F0ED
S11303F0BBC0B801809145019091460136DF892B3D
S113040009F4C2C06BC010913C011F5F10933C0102
S113041080E00EDF909346018093450181E008DF80
S11304207C0190934A0180934901193028F5029B7D
S113043009C0BC01809145019091460116DF892BCA
S113044009F4A2C002990CC0B701809145019091B2
S113045046010BDF892B09F092C010923C0147C082
S1130460029B92C0B7018091450190914601FDDE47
S1130470892B09F489C032C010923C01C1E0D0E05C
S113048083C080E0D5DE909346018093450181E0EE
S1130490CFDE90934A0180934901BC0180914501CC
S11304A090914601E2DE892B09F46EC017C0C1E0C9
S11304B0D0E002C0C4E0D0E0C330D10544F4C13080
S11304C0D1050CF061C0209709F040C007C0C330CB
S11304D0D10569F0C430D105C9F556C015B818B8AE
S11304E010923C0110923D01C0E0D0E04DC088B1B3
S11304F0811105C081E088B9C3E0D0E045C088B16E
S1130500813029F483E088B9C3E0D0E03DC088B1EC
S1130510833029F487E088B9C3E0D0E035C088B1DE
S1130520873029F48FE088B9C3E0D0E02DC088B1CA
S11305308F3029F48FE188B9C3E0D0E025C088B1B9
S11305408F3139F488B9C3E0D0E01EC018B815B8AB
S11305501BC0C3E0D0E018C0039BACCFC4E0D0E024
S113056013C0C2E0D0E010C0C4E0D0E00DC0C4E0CD
S1130570D0E00AC080913D018530C8F7AFCF029921
S1130580ADCF9ACFC4E0D0E0CE01DF91CF911F91DF
S11305900F91FF90EF9008958130910531F08230F2
S11305A09105C1F0892B71F529C080E041DE90935B
S11305B046018093450181E03BDE90934A0180939C
S11305C04901BC0180914501909146014EDE892B81
S11305D0A9F01BC080E02CDE909346018093450176
S11305E081E026DE90934A0180934901BC01809109
S11305F045019091460139DE892B39F41BB881E01D
S113060090E0089580E090E0089584E08BB982E062
S113061090E00895CF93DF93CDB7DEB728970FB658
S1130620F894DEBF0FBECDBF11B88FEF82B984B985
S113063015B887B918B88AB91BB888E0E4E0F1E0C6
S1130640DE01119601900D928A95E1F7E0E3F1E065
S11306501182108281E090E0A0E0B0E08283938375
S1130660A483B58386839783A087B18722E830E08B
S113067033872287E4E2F1E011821082828393833C
S1130680A483B58386839783A087B18724E630E06B
S113069033872287E8E1F1E01182108243E050E0E1
S11306A060E070E042835383648375834683578399
S11306B0608771872AE731E033872287ECE0F1E035
S11306C01182108282839383A483B5838683978364
S11306D0A087B1878CEC92E09387828764E670E010
S11306E080E090E02DDD3DDD9CDD7E0189E0E80EBB
S11306F0F11CDE0111966D01F601019111916F015A
S1130700D80116964D915D916D917C911997129631
S11307108D919D910D90BC91A02D481759076A07A2
S11307207B0779F4D8011A96ED91FC911B978D9172
S11307309C910995F8019183808316821782108613
S11307401186F80186819781A085B1850196A11D46
S1130750B11D86839783A087B187EC14FD0461F6ED
S1130760809142018823E1F310924201C2CFF894B0
S1050770FFCFB5
S10F077201000000300124010C011801FA
S9030000FC
